:020000020000FC
:1000000003E007BB03E006B904E808BB0FEF0BBB36
:1000100002BB0FED0DBF002432E349E3B0E0C0E6C0
:10002000D0E0F7E001E167D1122F117000E165D156
:1000300056D103E005BD04EB04BD0BBC01E60ABDCF
:1000400008BD02EA0FBD09E10EBD02ED06BF02E0E8
:1000500000BF01E003BF05EB302E56B2369410F41A
:1000600003ED302608B700FF14C008BF7F3F701DA6
:100070004A9579F407BA00E144D12F93212F2E6FCE
:1000800001E13FD12F91E199FECF03E007BBB69B81
:10009000FECF652C56B2652465FEC1C055FE08C072
:1000A0007C3110F516FD24C07031F0F01064B6C03C
:1000B0007F3FD1F07D30D8F4552351F4783020F4CF
:1000C0006623A9F062E011C061E050E2A0E6A6C09C
:1000D000733047945A9531F0052F077011F440940E
:1000E0004D929CC00E91041196C0106897C094C0A8
:1000F0007330D0F717FF92C00981073B21F40881C4
:10010000003A49F061FD87C0013211F00138D9F79A
:1001100007FB2A8108C00A8161FD42C004FB00324E
:1001200040F40F70E8D01160DCD016F41ABC28BC83
:1001300072C0093E21F411501170D1D06CC00A3E3A
:1001400019F411E0CED067C010FF65C0003318F479
:100150000F70D7D060C0003998F4003548F40F70A4
:1001600016F4207F02C002952F70202BBAD053C006
:1001700000370F7010F4D6F028C00295FEF02DC0A5
:100180000C3E19F41127B3D046C00A3F19F488E099
:1001900097E004C0083A21F480E19EE010633BC080
:1001A00010FD13FF39C00F3E31F401E0200F8DF533
:1001B0002F6020512EC00B3A29F400E1200F48F5A2
:1001C000206F27C00B3E31F401E0201B15F5207F86
:1001D000205F1FC00C3B29F400E1201BD0F42F70DE
:1001E00018C0023A21F422956ED0229512C0003F29
:1001F00059F0053F21F420312F7030F00AC00C3A3D
:1002000029F4203F206F28F05ED003C00B3D19F485
:10021000232D67D001C060E01F735527772766FC48
:1002200056FE1CCF49E33A9539F432E315FF04C07A
:10023000019711F412705BD030FF10CF14FF04C08F
:100240001F7E03E007BB0ACF77249AB4911821F0F0
:100250007A9410F4719491948824A8B4A21821F08F
:100260008A9410F48194A194186070148004D1F0E1
:10027000177F882071F0772089F09A1441F020F0E0
:1002800096949A1430F403C0A694A91438F412FD7D
:1002900005C00AB5070D0ABD146004C008B5080DF5
:1002A00008BD1B7F0AB5023618F4BB98B99A02C084
:1002B000B998BB9A08B5023618F4BC98B89ACECE55
:1002C000B898BC9ACBCE11FD05C02F5F15F0126017
:1002D00022500895215015F41D7F2E5F089510FFC0
:1002E00006C0E22F14900FE0E0272490089501E665
:1002F000102E202E0895E199FECF0EBBE09A2DB36B
:100300000895E199FECF0EBBE09A0DB3022751F09C
:10031000022304E221F004E12F3F11F004E02DBBA1
:060320000CBBE19A0895F8
:10070000616262636464656666676868696A6A6B89
:10071000616264656668696A6C6D6E6F717273752B
:1007200061636567696B6D6F71737577797B7D7FC9
:10073000616466696C6E717376797B7E818386896C
:100740006164686B6E7175787B7F8285898C8F920E
:100750006165696D7175797D8185898C9094989CAE
:1007600061666A6F73787D81868A8F94989DA2A650
:1007700061666C71767B81868B90969BA0A5ABB0F1
:1007800061676D73797F858A90969CA2A8AEB4BA92
:1007900061686E757B82898F969CA3A9B0B7BDC432
:1007A00061686F777E858C949BA2A9B1B8BFC6CED5
:1007B0006169717981899098A0A8B0B8C0C8D0D873
:1007C000616A727B838C949DA5AEB7BFC8D0D9E116
:1007D000616A737D868F98A2ABB4BDC6D0D9E2EBB7
:1007E000616B757F89929CA6B0BAC4CED8E1EBF557
:1007F000616C76818B96A0ABB5C0CAD5DFEAF4FFF9
:00000001FF
